:1000000005EF14F00000000000EF00F00000000019
:100010000000000000000000F3D7FFFFDBC2C9FFB3
:10002000C7B002D00000FCD7C9CF00F01200DBC27D
:100030006FFF6DB002D00000FCD76FCF00F0120050
:10004000F250026EF29E0500FF6A0150FE6E0050F3
:10005000FD6E02BEF28E12008292400E0201D81195
:10006000006E08C2E1FF09C2E2FF00C0E6FF06C25F
:1000700000F007C201F0E4DF08C2E1FF09C2E2FFBD
:10008000D9C2E6FF06C200F007C201F0D9DF08C2FC
:10009000E1FF09C2E2FFDAC2E6FF06C200F007C2D2
:1000A00001F0CEDF82821200020E0201D86FD5C2AB
:1000B000D9F2D6C2DAF2D0DF829208C2E1FF09C2D9
:1000C000E2FF7A0EE66E06C200F007C201F0B8DF6A
:1000D00008C2E1FF09C2E2FFD7C2E6FF06C200F094
:1000E00007C201F0ADDF828212008292A00E0201EF
:1000F000D511006E08C2E1FF09C2E2FF00C0E6FFB1
:1001000006C200F007C201F09BDF08C2E1FF09C28E
:10011000E2FFD6C2E6FF06C200F007C201F090DFA0
:1001200082821200829208C2E1FF09C2E2FF7A0EC7
:10013000E66E06C200F007C201F082DF08C2E1FFEE
:1001400009C2E2FFD5C2E6FF06C200F007C201F015
:1001500077DF828212008292800E0201D511006E3A
:1001600008C2E1FF09C2E2FF00C0E6FF06C200F0DC
:1001700007C201F065DF08C2E1FF09C2E2FFD6C293
:10018000E6FF06C200F007C201F05ADF82821200C9
:10019000829208C2E1FF09C2E2FFD5C2E6FF06C2B1
:1001A00000F007C201F04CDF08C2E1FF09C2E2FF24
:1001B000E66A06C200F007C201F042DF8282120046
:1001C0000201D86BD5C2D9F2D6C2DAF245DF8292EB
:1001D00008C2E1FF09C2E2FF3A0EE66E06C200F075
:1001E00007C201F02DDF08C2E1FF09C2E2FFE66AA3
:1001F00006C200F007C201F023DF82821200020172
:10020000D46B010EC95F000ECA5BCD530DE0CA511D
:10021000190802E1C951AD0807E2D42BAD0EC95D42
:10022000D26F190ECA59D36FD45305E0AD0ECE6FFD
:10023000190ECF6F04D0C9C2CEF2CAC2CFF2C851D4
:10024000CF1902E1CE51C7190DE1C7C2D5F2C8C21C
:10025000D6F2B6DF00C0D7F2CBC2D5F2CCC2D6F20E
:1002600023DF36D0100E0201D86FC7C2D9F2C8C240
:10027000DAF2F2DE120E0201D86FD45305E0AD0EB1
:10028000D06F190ED16F04D0C9C2D0F2CAC2D1F258
:10029000D0C2D9F2D1C2DAF2DFDE140E0201D86F79
:1002A000CBC2D9F2CCC2DAF2D7DE1F0E0201D56F73
:1002B000100ED66F1ADF1F0E0201D56F200ED66FFB
:1002C0004ADF1F0E0201D56F63DF00AA01D0F9D704
:1002D0000201D4531AE0C751C95D006EC851CA5912
:1002E000016ED251005ED351015A004A012A0050DA
:1002F000CB270150CC23010ED25DC96F000ED3591C
:10030000CA6FC76BC86BD46B8FD71200020E020185
:10031000D86FC7C2D9F2C8C2DAF29EDE829208C292
:10032000E1FF09C2E2FF7A0EE66E06C200F007C2E4
:1003300001F086DE0201CB51CC1117E008C2E1FFCB
:1003400009C2E2FFC9C2E9FFCAC2EAFFEECFE6FF77
:1003500006C200F007C201F073DE0201C94BCA2BCE
:10036000010ECB5F000ECC5BE5D78282120002014A
:10037000C951C725CB6FCA51C821CC6F010ECB5FC5
:10038000000ECC5B100ED86FC7C2D9F2C8C2DAF229
:1003900063DE120E0201D86FCBC2D9F2CCC2DAF200
:1003A0005BDE1F0E0201D56F300ED66FD4DE1F0E3E
:1003B0000201D56FEDDE00AA01D0F9D71200C7C245
:1003C000D5F2C8C2D6F2C9C2D7F26EDECAC2D5F221
:1003D000A9DE1200829208C2E1FF09C2E2FF7A0E92
:1003E000E66E06C200F007C201F02ADEC9C200F0C4
:1003F000CAC201F0010E0201C95F000ECA5B0050C3
:10040000011013E008C2E1FF09C2E2FFC7C2E9FF21
:10041000C8C2EAFFEECFE6FF06C200F007C201F055
:100420000FDE0201C74BC82BE1D7828212008292F5
:1004300008C2E1FF09C2E2FF7A0EE66E06C200F0D2
:1004400007C201F0FDDD08C2E1FF09C2E2FFC8C238
:10045000E6FF06C200F007C201F0F2DD08C2E1FFCC
:1004600009C2E2FFC7C2E6FF06C200F007C201F000
:10047000E7DD82821200C9C204F0CAC205F0C7C219
:1004800002F0C8C203F0CBC200F0CCC201F0010EF2
:100490000201CB5F000ECC5B005001100FE004C0E6
:1004A000E9FF05C0EAFF02C0E1FF03C0E2FFEECFB3
:1004B000E6FF024A032A044A052AE5D7C7C200F02C
:1004C000C8C201F01200AE0E0201D56F190ED66F30
:1004D000D76BEADDAE0E0201C725006E190EC821EA
:1004E000016E00C0C7F201C0C8F2060ED86F00C08E
:1004F000D9F201C0DAF2B0DD1F0E0201D56F800E15
:10050000D66F29DE1F0E0201D56F800ED66FEDDD8E
:1005100002011151050A04E01151070A01E005D05A
:100520001C0ED56F0A0ED66FE0DD1F0E0201D56FCF
:10053000080ED66F10DE02011151050A04E01151B8
:10054000070A01E07FD0CC6BCD6B1C0ED56F20DE8F
:100550000A0E001600520AE10201CC4BCD2B030E0D
:10056000CD5D02E1E80ECC5D01E2EFD702011C0E89
:10057000D56F0EDE00B208D0030E0201CD5D02E1A0
:10058000E80ECC5D01E25DD002011F0ED56F080EB2
:10059000D66FABDD040E0201C725D56F000EC82152
:1005A000D66F0EDE00C0CBF20201C96B100EC95D22
:1005B00048E21C0ED56FECDD00A23FD00201CBABB0
:1005C0003CD01F0ED56F800ED66FC5DD1F0E020109
:1005D000D56F800ED66F89DD1C0E0201D56F0A0E15
:1005E000D66F83DD1F0E0201D56F080ED66FB3DD07
:1005F0000201CC6BCD6B1C0ED56FCADD0A0E001646
:1006000000520AE10201CC4BCD2B030ECD5D02E17D
:10061000E80ECC5D01E2EFD702011F0ED56F080E88
:10062000D66F63DD040E0201C725D56F000EC82109
:10063000D66FC6DD00C0CBF201D003D00201C92BBA
:10064000B5D707D002011F0ED56FA2DD00A601D0DD
:10065000F9D71D0E0201D56F9BDD060E0016005264
:1006600003E00201CA6B03D00201010ECA6FCAC2C5
:1006700000F01200B9C2C7F2BAC2C8F20D0E0201F0
:10068000C96F020ECA6F040ECB6F000ECC6FF3DE83
:10069000BB6BBB51030821E3BB51B925026E000EB1
:1006A000BA21036E02C0E9FF03C0EAFFEECF01F0FA
:1006B000EE0EE96E010EEA6EBB51E926D8B0EA2AC9
:1006C000FF0EEE18006E0150001202C0E1FF03C0E1
:1006D000E2FF00C0E6FFBB2BDCD71200AF0E020129
:1006E000C76F190EC86FB9C2C9F2BAC2CAF2060EF4
:1006F000CB6F000ECC6F0ADEE80EC76F010EC86F1D
:10070000060EC96F000ECA6F65DE000EC76F080EB9
:10071000C86F8DDE1C0E0201C125C46F000EC22100
:10072000C56F000EC76F450EC86F81DEC4C2C7F229
:10073000C5C2C8F27CDE1AC2C7F21BC2C8F277DE9D
:1007400002011A4B1B2BC76BC86B71DE110E020125
:10075000C76F800EC86F6BDE0201C76BC86B67DEA8
:100760000D0E0201C76F020EC86F040EC96F000E96
:10077000CA6F30DEBBC2C7F2BCC2C8F2040EC96F7A
:10078000000ECA6F27DE080EC125C46F000EC221FD
:10079000C56FBDC2C7F2BEC2C8F249DEBFC2C7F252
:1007A000C0C2C8F244DEC4C2C7F2C5C2C8F23FDE4E
:1007B0000201C76BC86B3BDEBD0E0201C76F190E8D
:1007C000C86F140EC96F000ECA6FD1DD160E02017C
:1007D000D56FDEDC00C0C6F2170E0201D56FD8DC83
:1007E00000C0C9F2C70E0201C76F190EC86FC6C29A
:1007F000CAF2E5DD010E0201C415C36FD90EC12591
:10080000D56F190EC221D66FD76B4EDCC90E02010F
:10081000C76F190EC86FD10EC96F190ECA6FD90EE6
:10082000C125CB6F190EC221CC6FC351CB27000E4F
:10083000CC23CD6BE4DCD90EC125C76F190EC221C4
:10084000C86FC351C727000EC823080EC727000E64
:10085000C823C96B110ECA6FB2DDC5C2D5F262DC06
:10086000C4C2D5F25FDCD10E0201C76F190EC86F8A
:100870000C0EC425C96F000EC521CA6FC351C9270C
:10088000000ECA2374DD160E0201D56F81DC00C094
:10089000C6F2170E0201D56F7BDC00C0C9F2D70E7D
:1008A0000201C76F190EC86FC6C2CAF288DD2A0ED0
:1008B0000201C125C76F000EC221C86F04DE1200FD
:1008C000829208C2E1FF09C2E2FF7A0EE66E06C21A
:1008D00000F007C201F020EC00F0BCC200F0BDC285
:1008E00001F0010E0201BC5F000EBD5B0050011063
:1008F0001CE008C2E1FF09C2E2FFB9C2F6FFBAC2BA
:10090000F7FFBBC2F8FF0900F5CF00F000C0E6FF1B
:1009100006C200F007C201F020EC00F0010E020157
:10092000B927000EBA23BB23D8D782821200020156
:10093000BC51FF0A02E1FF0EBB1907E0D86BBBC236
:10094000D9F2BCC2DAF22CEC00F0829208C2E1FFCC
:1009500009C2E2FF3A0EE66E06C200F007C201F0DD
:1009600020EC00F0BDC200F0BEC201F0010E020199
:10097000BD5F000EBE5B0050011015E008C2E1FF34
:1009800009C2E2FFE66A06C200F007C201F020ECED
:1009900000F0B9C2E1FFBAC2E2FF00C0E6FF020107
:1009A000B94BBA2BDFD782821200829208C2E1FFD4
:1009B00009C2E2FF3A0EE66E06C200F007C201F07D
:1009C00020EC00F008C2E1FF09C2E2FFE66A06C2BD
:1009D00000F007C201F020EC00F082821200BDC2DC
:1009E00001F0BEC202F0010E0201BD5F000EBE5B4F
:1009F000000E021802E1000E01181FE0B9C2E9FF63
:100A0000BAC2EAFFBBC2D9FFBCC2DAFFEE50DE18A1
:100A10000FE0B9C2E9FFBAC2EAFFBBC2D9FFBCC24C
:100A2000DAFFDE50EE5C006E016A000E015A07D05C
:100A3000B94BBA2BBB4BBC2BD2D7006A016A120050
:100A4000020E0C6E9C0E0D6E0D2EFED70C2EFCD7DA
:100A50000000000012000201B36B3C0E0101F26FB6
:100A6000000EF36FF46FF56FA0DF00C0B1F200501D
:100A7000020AD8A419D10201B26B0F0EB25D04E2D2
:100A800094DF0201B22BF9D7E40EB96F010EBA6FF1
:100A9000FF0EBB6FFF0EBC6F040EBD6F000EBE6F6E
:100AA00046DFB26B080EB25D04E27FDF0201B22BBB
:100AB000F9D7B26B060EB25D12E277DF00C0B1F279
:100AC000E80ED96E010EDA6E0201B251D926D8B005
:100AD000DA2A0050DE1801E012D1B22BEBD7B26B4C
:100AE000CE0EB25D04E261DF0201B22BF9D7B46B26
:100AF0005CDF00C0B1F2B9D058DF00C0B1F20050E5
:100B0000010A04E152DF00C0B3F201D0F8D0C8D02E
:100B10004CDF00C0B1F20050040A0FE1FE0E0201EA
:100B2000B96F010EBA6FFF0EBB6FFF0EBC6F040EE4
:100B3000BD6F000EBE6FFBDE01D0E1D0B1D035DF5E
:100B400000C0B1F2040E005C0FE3020E0201B96FA7
:100B5000020EBA6FFF0EBB6FFF0EBC6F040EBD6FAF
:100B6000000EBE6FE4DE01D0CAD00201040EB15FF8
:100B70000201B1C200F0B107005202E016DFF8D75F
:100B80008FD013DF00C0B1F2040E005C0FE3F60E4D
:100B90000201B96F010EBA6FFF0EBB6FFF0EBC6F83
:100BA000040EBD6F000EBE6FC2DE01D0A8D00201E0
:100BB000040EB15F0201B1C200F0B107005202E0C1
:100BC000F4DEF8D76DD0F1DE00C0B1F20050040AB7
:100BD0000FE1B50E0201B96F020EBA6FFF0EBB6FC7
:100BE000FF0EBC6F040EBD6F000EBE6FA0DE01D005
:100BF00086D056D00201010EB46F52D0D6DE00C0AE
:100C0000B1F20050040A23E1F20E0201B96F010EA5
:100C1000BA6FFF0EBB6FFF0EBC6F040EBD6F000EF0
:100C2000BE6F85DE0101F551000808E1F4510008AE
:100C300005E1F351070802E1F251080807E2080E46
:100C4000F25F070EF35B000EF45BF55B01D057D04B
:100C500027D0ABDE00C0B1F2B1C200F00201B10793
:100C6000005202E0A2DEF8D71BD00201B151350AD2
:100C7000D8B442D7B151010AD8B44AD7B151030A06
:100C8000D8B45DD7B151060AD8B47BD7B151360A72
:100C90009AE0B151FF0AAEE0B151330AAFE0D9D7C3
:100CA0000201B453D8B424D70201B351020A0FE1B0
:100CB000FA0EC76F010EC86FB50EC96F020ECA6F6C
:100CC000040ECB6F000ECC6F3BEC02F015D0FA0E89
:100CD000B96F010EBA6FB50EBB6F020EBC6F040E7A
:100CE000BD6F000EBE6F7BDE000E011802E1000E2C
:100CF000001802E00201B36BB3C200F001D0006A39
:100D00001200EE0E0201C76F010EC86FB1C2C9F228
:100D1000B2C2CAF2040ECB6F000ECC6F3BEC02F0F5
:100D2000260EC76F020EC86FB3C2C9F2B4C2CAF2B0
:100D3000040ECB6F000ECC6F3BEC02F02A0EC76F97
:100D4000020EC86FB5C2C9F2B6C2CAF2040ECB6FAA
:100D5000000ECC6F3BEC02F0200EB96F020EBA6FA2
:100D600089DC12000201B56BB66B829208C2E1FF0A
:100D700009C2E2FF7A0EE66E06C200F007C201F079
:100D800020EC00F0B1C200F0B2C201F0B3C202F038
:100D9000010E0201B127000EB223B32300C0F6FFFB
:100DA00001C0F7FF02C0F8FF0900F5CF00F000C056
:100DB000B4F2005210E008C2E1FF09C2E2FFB4C27F
:100DC000E6FF06C200F007C201F020EC00F00201CD
:100DD000B54BB62BD7D78282B5C200F0B6C201F0B0
:100DE0001200F90E0201B46F000EB56F020ED86F3B
:100DF000D90ED96F190EDA6F2CEC00F0230E020118
:100E0000B96F2A0EBA6F000EBB6F0C0EBC6F000ECE
:100E1000BD6F56DDB151030A0DE1B2530BE0E40E94
:100E2000C76F010EC86F040EC96F000ECA6FEAECDF
:100E300001F00AD0B36B040EB35D06E2D56B92EC01
:100E400000F00201B32BF7D7B36B0C0EB35D06E2D3
:100E5000D56B92EC00F00201B32BF7D7E80EC76F09
:100E6000010EC86F060EC96F000ECA6FEAEC01F0E2
:100E7000B36BCA0EB35D06E2D56B92EC00F00201D3
:100E8000B32BF7D73B0EB96F2A0EBA6F000EBB6FAC
:100E9000060EBC6F000EBD6F13DDB1C2D5F292EC31
:100EA00000F00201B151030A1AE1B25318E1360E03
:100EB000D56F92EC00F0040E0201D56F92EC00F0B9
:100EC000FA0E0201C76F010EC86F040EC96F000E43
:100ED000CA6FEAEC01F0060EB427000EB523410EEE
:100EE000B96F2A0EBA6F000EBB6F050EBC6F000EF5
:100EF000BD6FE6DCB151030A23E1B25321E1320EAA
:100F0000D56F92EC00F0040E0201D56F92EC00F068
:100F10000201B36B040EB35D0FE2E40EE96E010E45
:100F2000EA6EB351E926D8B0EA2AEECFD5F292ECB8
:100F300000F00201B32BEED7060EB427000EB52346
:100F4000FF0ED56F92EC00F0220E0201B96F000E79
:100F5000BA6F220EBB6F000EBC6F440EBD6F000E49
:100F6000BE6F430EBF6F000EC06FB4C2C1F2B5C2F8
:100F7000C2F26EEC03F01200B1C202F0B2C203F092
:100F8000B4C200F0B5C201F0010E0201B45F000E60
:100F9000B55B0050011009E002C0E1FF03C0E2FFB1
:100FA000B3C2E6FF024A032AEBD7B1C200F0B2C2D5
:100FB00001F012000201B46BB56B829208C2E1FF2E
:100FC00009C2E2FF7A0EE66E06C200F007C201F027
:100FD00020EC00F0B1C200F0B2C201F00201B14B4E
:100FE000B22B00C0E9FF01C0EAFFEECF00F000C065
:100FF000B3F2005210E008C2E1FF09C2E2FFB3C23F
:10100000E6FF06C200F007C201F020EC00F002018A
:10101000B44BB52BDFD78282B4C200F0B5C201F069
:101020001200B50E0201C76F190EC86FBB0EC96F53
:10103000190ECA6FAF0ECB6F190ECC6FCD6BFFECD4
:1010400000F0B50EC76F190EC86FE80EC96F010E1C
:10105000CA6F060ECB6F000ECC6F86EC01F012004B
:101060000B6A0A6A096A00500402F4CF09F0F3CF50
:1010700008F001500502F4CF0BF0F3CF0AF0005056
:101080000502F3500926F4500A22E86A0B220150A7
:101090000402F3500926F4500A22E86A0B2208C021
:1010A00000F009C001F00AC002F00BC003F012000A
:1010B0000201D56BC8EC00F000C0A8F2010E0201DD
:1010C000D56FC8EC00F000C0A9F20201D86BA3C232
:1010D000D9F2A4C2DAF22CEC00F0829208C2E1FF4D
:1010E00009C2E2FF3A0EE66E06C200F007C201F046
:1010F00020EC00F00201A75318E008C2E1FF09C28A
:10110000E2FFE66A06C200F007C201F020EC00F040
:10111000A5C2D9FFA6C2DAFF0050DE1801E005D053
:101120000201A54BA62BA707E5D702018282D86B47
:10113000A8C2D9F2A9C2DAF22CEC00F0A7C200F0E2
:1011400012000201A36BC80EA35D04E279DC78DC17
:10115000A32BF9D712008292400E0201A311006E58
:1011600008C2E1FF09C2E2FF00C0E6FF06C200F0CC
:1011700007C201F020EC00F008C2E1FF09C2E2FF63
:10118000A4C2E6FF06C200F007C201F020EC00F0A6
:10119000828212000201A451190802E1A351AD0894
:1011A00004E2AE0EA35F190EA45BD86BA3C2D9F202
:1011B000A4C2DAF22CEC00F012000201AD6BAE6BAF
:1011C000000EAE5D02E10A0EAD5D12E25B0EAD25D2
:1011D000AF6F020EAE21B06FD5EC04F0AFC2E1FFED
:1011E000B0C2E2FF00C0E6FF0201AD4BAE2BE8D774
:1011F0005B0EAD25E16E020EAE21E26EE1CFE1FFA6
:10120000E2CFE2FFE66A5B0EB96F020EBA6FDE0E46
:10121000BB6F010EBC6F050EBD6F000EBE6FEFEC15
:1012200004F00050011003E0006A016A54D0610E1E
:101230000201B96F020EBA6FDB0EBB6F010EBC6FFD
:10124000020EBD6F000EBE6FEFEC04F000500110F7
:1012500002E1837013D0610E0201B96F020EBA6F02
:10126000380EBB6F000EBC6F020EBD6F000EBE6F5E
:10127000EFEC04F000500110D8B48372000E0201AC
:10128000A81902E1500EA71903E0006A016A23D0F1
:10129000050EB16F2A0EB26F000EB36F63DD00C092
:1012A000ADF201C0AEF22F0EB16F2A0EB26F000E7A
:1012B000B36F58DD0050AD270150AE233B0EB16F28
:1012C000000EB26F77DEAD510026AE51012200C094
:1012D000ADF201C0AEF21200C90E0201C76F190EC5
:1012E000C86FCD0EC96F190ECA6FCD0ECB6F190E18
:1012F000CC6FCD6BFFEC00F0C90EC76F190EC86F35
:101300000D0EC96F020ECA6F040ECB6F000ECC6FAC
:1013100086EC01F01200006A016A1200D5EC04F0BC
:10132000D5EC04F0D5EC04F000C0A4F2D5EC04F048
:1013300000C0A3F2D5EC04F000C0A6F2D5EC04F096
:1013400000C0A5F2D5EC04F000C0A8F2D5EC04F082
:1013500000C0A7F2D5EC04F0D5EC04F0D5EC04F015
:10136000D5EC04F0A5C200F0A6C201F0010E020106
:10137000A55F000EA65B005001100EE0D5EC04F056
:10138000005201E0FBD7D5EC04F0D5EC04F0D5EC2D
:1013900004F0D5EC04F0E6D7A7C200F0A8C201F033
:1013A000010E0201A75F000EA85B0050011048E08B
:1013B000D5EC04F0D5EC04F0D5EC04F000C0ACF2B0
:1013C000D5EC04F000C0ABF2D5EC04F0D5EC04F0A1
:1013D000D5EC04F0D5EC04F0D5EC04F0D5EC04F039
:1013E000D5EC04F000C0AAF2D5EC04F000C0A9F2DC
:1013F000000E0201AC1902E1010EAB1911E1D5ECAE
:1014000004F000C016F2D5EC04F000C017F2D5ECE1
:1014100004F000C018F2D5EC04F000C019F210D0AE
:10142000A9C200F0AAC201F0010E0201A95F000EDC
:10143000AA5B0050011003E0D5EC04F0F1D7ACD763
:101440001200AFD00D0E0201B16F020EB26FB36B7E
:10145000040EB46F000EB56F8FDD010EB16FB26B6D
:10146000C0DC2BC012F22CC013F22DC014F22EC01F
:1014700015F2030E216EA6D00201050E1225016E93
:10148000000E1321026E000E1421036E000E1521B2
:10149000046E2E50045C08E12D50035C05E12C50D5
:1014A000025C02E12B50015C02E2020E216E2BEC89
:1014B00005F00050020A03E1040E216E01D082D033
:1014C000030E0201B16F2AC0B2F28BDC2BC012F204
:1014D0002CC013F22DC014F22EC015F2050E216E91
:1014E00071D02BEC05F000C0A3F20050060A03E116
:1014F000040E216E2CD00201A351050A28E12BC055
:1015000012F22CC013F22DC014F22EC015F2060EEA
:10151000216E0D0EC76F020EC86FE40EC96F010E6B
:10152000CA6F040ECB6F000ECC6F3BEC02F0FE0EC8
:10153000B16F010EB26F020EB36F020EB46FF60EF2
:10154000B56F010EB66F81EC06F02A6A3BD03AD037
:101550000201010E1225016E000E1321026E000E13
:101560001421036E000E1521046E04502E5C08E158
:1015700003502D5C05E102502C5C02E101502B5C14
:101580000FE3010E0101F25F000EF35BF45BF55B0C
:101590002BC012F22CC013F22DC014F22EC015F283
:1015A00011D02150020AD8B44DD72150030AD8B423
:1015B00063D72150040A84E02150050A92E02150AB
:1015C000060AC6E012007AC2D5F27BC2D6F2E0EC7F
:1015D00000F000C08AF2D5EC04F000C089F2D5EC2E
:1015E00004F000C088F2D5EC04F000C087F20201DC
:1015F0008F6B946B010E956F926B936B0C0E7A252B
:10160000D56F000E7B21D66FE0EC00F000C08DF2AC
:10161000000E02018E6F8D338D9F8D338D9F000ED6
:101620008E6FFC0E8D17FF0E8E179E0EB96F020E79
:10163000BA6FC90EBB6F190EBC6F040EBD6F000EE2
:10164000BE6F97EC04F00D0E7A25D56F000E7B214E
:10165000D66FE0EC00F03F0E001402018B6F8C6B34
:10166000000E8C17000E8C6F0E0E0A5D906F000E30
:101670000B59916F7851905F7951915B8D51905FCB
:101680008E51915B020E7A25D56F000E7B21D66FAD
:10169000E0EC00F000C0D7F27AC2D5F27BC2D6F2FD
:1016A00054EC00F0030E02017A25D56F000E7B2169
:1016B000D66FE0EC00F000C0D5F292EC00F089C2E9
:1016C000C7F28AC2C8F217EC02F0040E02017A25B2
:1016D000D56F000E7B21D66FE0EC00F000C099F2D0
:1016E000D5EC04F000C098F2D5EC04F000C097F2FD
:1016F000D5EC04F000C096F2D5EC04F000C09DF2E9
:10170000D5EC04F000C09CF2D5EC04F000C09BF2D4
:10171000D5EC04F000C09AF2000E02018C1902E12F
:10172000020E8B193CE1010E9625006E000E9721EA
:10173000016E000E9821026E000E9921036E00C00A
:101740009AF201C09BF202C09CF203C09DF2120EFD
:101750008B6F000E8C6F0C0ED56FC8EC00F000C0C4
:1017600096F20D0E0201D56FC8EC00F000C097F2A2
:101770000201D56BC8EC00F000C098F2010E020126
:10178000D56FC8EC00F000C099F202018F2B180E43
:101790008D6F000E8E6F926B936B1F6A6ED0000E72
:1017A0008C1902E1180E8B192FE196C27CF297C2B8
:1017B0007DF298C27EF299C27FF29AC296F29BC2E3
:1017C00097F29CC298F29DC299F290517C25006ECE
:1017D00091517D21016E000E7E21026E000E7F214F
:1017E000036E00C09AF201C09BF202C09CF203C0DB
:1017F0009DF2100E8B6F000E8C6F8F2B140E8D6F61
:10180000000E8E6F942B39D0000E8C1902E1110E50
:101810008B1933E196C280F297C281F298C282F2AC
:1018200099C283F29AC296F29BC297F29CC298F236
:101830009DC299F2010E8025006E000E8121016E7D
:10184000000E8221026E000E8321036E00C09AF208
:1018500001C09BF202C09CF203C09DF2100E8B6F80
:10186000000E8C6F8F2B140E8D6F000E8E6F926B8F
:10187000936B205202E11F2A206A8F53D8B4C8D13B
:10188000040E7A25C76F000E7B21C86F99C2C9F27A
:1018900098C2CAF2DFEC01F097C2D5F292EC00F0E8
:1018A00096C2D5F292EC00F09DC2D5F292EC00F017
:1018B0009CC2D5F292EC00F09BC2D5F292EC00F003
:1018C0009AC2D5F292EC00F00C0E02017A25D56F87
:1018D000000E7B21D66FE0EC00F00F0E0014020129
:1018E000D76F8DC200F00036009000360090005097
:1018F000D7130C0E7A25D56F000E7B21D66F54ECD2
:1019000000F00D0E02017A25D56F000E7B21D66FF7
:10191000E0EC00F0C00E00140201D76F8B51D7131A
:101920000D0E7A25D56F000E7B21D66F54EC00F09A
:10193000000E02018C1902E1120E8B1923E10E0E2A
:101940007A25C76F000E7B21C86F050EC96FEE0E9A
:10195000CA6FDFEC01F0140E02017A25C76F000E8A
:101960007B21C86F020EC96F040ECA6FDFEC01F055
:10197000050E0201D56F92EC00F0780E0201D56FD2
:1019800092EC00F0020178519225906F79519321E9
:10199000916F8D5190278E519123955303E011EC57
:1019A00008F09ADCBF0EC76F190EC86F91C2C9F25A
:1019B00090C2CAF2DFEC01F0C70E0201C76F190E28
:1019C000C86FC96BCA6BDFEC01F0BD0E0201C76FB7
:1019D000190EC86F78C2C9F279C2CAF2B7EC01F029
:1019E000160E0201D56FC8EC00F000C0A2F2170E6F
:1019F0000201D56FC8EC00F000C0C9F2C70E0201A9
:101A0000C76F190EC86FA2C2CAF2DFEC01F0BD0E9B
:101A100002019025856F190E9121866F100E7A258F
:101A2000C76F000E7B21C86FC96BCA6BDFEC01F07A
:101A3000010E02019015846F85C2D5F286C2D6F2DE
:101A4000D76B54EC00F0C90E0201C76F190EC86FB6
:101A5000D10EC96F190ECA6F84518525CB6F000E48
:101A60008621CC6FCD6BFFEC00F0080E8525C76F8B
:101A7000000E8621C86F8451C727000EC823C96B8A
:101A8000060ECA6FDFEC01F00A0E02018525C76F52
:101A9000000E8621C86F8451C727000EC8239251BB
:101AA0008D25036E93518E21046E04C000F0016AEF
:101AB00000C0C9F203C0CAF2DFEC01F07AC2C7F27B
:101AC0007BC2C8F2020192518D25C96F93518E21BC
:101AD000CA6F0C0EC927000ECA238451C927000EF5
:101AE000CA23B7EC01F0160E0201D56FC8EC00F066
:101AF00000C0A2F2170E0201D56FC8EC00F000C0C2
:101B0000C9F2100E02017A25C76F000E7B21C86F43
:101B1000A2C2CAF2DFEC01F00E0E02019025C76FDF
:101B2000000E9121C86F63EC02F094534CE0100E4C
:101B30008B6F000E8C6F946B956B020ED86F8D516E
:101B40007A25D96F8E517B21DA6F2CEC00F00E0EC6
:101B500002017625A36F000E7721A46F7851A32789
:101B60007951A4238D51A3278E51A423CAEC08F0E8
:101B70001F2A9E0E0201A36F020EA46F89C2A5F256
:101B80008AC2A6F287C2A7F288C2A8F20E0E0A5D28
:101B9000A96F000E0B59AA6F7851A95F7951AA5B02
:101BA0008D51A95F8E51AA5B0C0EAB6F020EAC6F0C
:101BB000DDEC08F000C092F201C093F202010CB11A
:101BC00001D01F6A5DD61F5223E092519625006E08
:101BD00093519721016E000E9821026E000E9921FB
:101BE000036E00C096F201C097F202C098F203C0E3
:101BF00099F2110E8B6F000E8C6F1F6A956B140E8D
:101C00008D6F000E8E6F926B936B010E206E38D627
:101C100012001F0E0201D56F010ED66F75EC00F099
:101C20001F0E0201D56F020ED66FABEC00F0140E42
:101C30000201A36F76C2A4F2ABEC08F0120E02010F
:101C4000D56F010ED66FABEC00F0A1EC08F0120ED0
:101C5000D56F010ED66F75EC00F0180E0201D56F2E
:101C6000C8EC00F079C2E1FF7AC2E2FF00C0E6FFF3
:101C7000190E0201D56FC8EC00F077C2E1FF78C2FF
:101C8000E2FF00C0E6FF120079C2D5F27AC2D6F2B6
:101C9000E0EC00F000C084F2D5EC04F000C083F268
:101CA000D5EC04F000C082F2D5EC04F000C081F263
:101CB000000E0201821902E1000E811901E18AD0B1
:101CC000D5EC04F000C086F2D5EC04F000C085F23B
:101CD000870E0201B96F020EBA6FC90EBB6F190EE3
:101CE000BC6F040EBD6F000EBE6F97EC04F0020EC9
:101CF000D86F080E7925D96F000E7A21DA6F2CEC97
:101D000000F00E0E02017625A36F000E7721A46F5E
:101D10007851A327000EA423080EA327000EA423A6
:101D2000CAEC08F0000E0201841902E1350E831995
:101D300003E18EEC09F04ED0000E0201821902E19F
:101D4000440E811903E121EC0AF044D0870E020110
:101D5000A36F020EA46F83C2A5F284C2A6F281C251
:101D6000A7F282C2A8F2080E855DA96F000E8659FF
:101D7000AA6F0C0EAB6F020EAC6F8BEC09F000C0BB
:101D800085F201C086F20050011024E07B0EB96F8D
:101D9000020EBA6FB50EBB6F190EBC6F060EBD6F8B
:101DA000000EBE6F97EC04F07B0EB96F020EBA6F97
:101DB000870EBB6F020EBC6F81C2BDF282C2BEF243
:101DC00083C2BFF284C2C0F285C2C1F286C2C2F22F
:101DD0006EEC03F01200C40E0201D56F190ED66F1F
:101DE000E0EC00F000C076F2E8D0D50E0201A36F5F
:101DF000190EA46F0D0EA56F020EA66F040EA76F2D
:101E000058EC08F00050000A4BE1C40E0201D56FF7
:101E1000190ED66F020ED76F54EC00F011EC08F0DB
:101E2000CB0EC76F190EC86FCF0EC96F190ECA6FD0
:101E3000D50ECB6F190ECC6FCD6BFFEC00F0CB0E37
:101E4000C76F190EC86F0D0EC96F020ECA6F040E50
:101E5000CB6F000ECC6F86EC01F0C50EC76F190E6C
:101E6000C86FCB0EC96F190ECA6FCF0ECB6F190E8C
:101E7000CC6FCD6BFFEC00F0C50EC76F190EC86FAD
:101E8000E80EC96F010ECA6F060ECB6F000ECC6F45
:101E900086EC01F03C0EC76F000EC86F63EC02F0D9
:101EA00095D00201AF0EA36F190EA46FE80EA56FB7
:101EB000010EA66F060EA76F58EC08F00050000A3E
:101EC0007BE1CB0E0201A36F190EA46F24C2A5F211
:101ED00025C2A6F2040EA76F58EC08F00050000AC5
:101EE0006BE10F0E006E000E016E37C004F0000EA5
:101EF000056E30EC08F02E0E00240201B96F020EC0
:101F00000120BA6F090EB927000EBA23C50EBB6FA8
:101F1000190EBC6F060EBD6F000EBE6F97EC04F07D
:101F20000F0E006E000E016E37C004F0000E056E3D
:101F300030EC08F02E0E0024C76F020E0120C86F8F
:101F4000050EC727000EC82324C2C9F225C2CAF253
:101F5000040ECB6F000ECC6F3BEC02F00F0E006E48
:101F6000000E016E37C004F0000E056E30EC08F074
:101F70002E0E0024E16E020E0120E26E010EE66ECE
:101F80000F0E006E000E016E37C004F0000E056EDD
:101F900030EC08F02E0E0026020E0122010E002465
:101FA000E16E000E0120E26E2BC0E6FF2CC0E6FFC2
:101FB0002DC0E6FF2EC0E6FF09D002017651010ACE
:101FC000D8B413D77651020AD8B46BD712001F0EBB
:101FD0000201D56F010ED66F75EC00F01F0E0201E5
:101FE000D56F020ED66FABEC00F0140E0201A36F9A
:101FF00076C2A4F2ABEC08F0A1EC08F0160EA36FC9
:1020000078C2A4F2ABEC08F0A1EC08F0170EA36FB5
:1020100077C2A4F2ABEC08F0A1EC08F012000201C8
:10202000A36B6A5303E00D0E6B6F02D0050E6B6F4E
:102030006BC2A4F2ABEC08F0020E0201A36F6A536C
:1020400003E0310E6C6F02D0300E6C6F6CC2A4F2E4
:10205000ABEC08F00A0E0201D86FEE0ED96F050E38
:10206000DA6F2CEC00F0040E0201A36F6A5303E058
:10207000150E6D6F02D0120E6D6F6DC2A4F2ABEC37
:1020800008F0060E0201A36F120EA46FABEC08F06D
:1020900002016A5306E1070EA36F0C0EA46FABECAE
:1020A00008F002016A5306E1090EA36F3F0EA46F08
:1020B000ABEC08F01F0E0201D56F010ED66FABEC32
:1020C00000F01F0E0201D56F020ED66FABEC00F0D0
:1020D000040E0201A36FE8C1A4F2ABEC08F0050EF8
:1020E0000201A36FE9C1A4F2ABEC08F0020E0201F9
:1020F000A36FEAC1A4F2ABEC08F0030E0201A36FD8
:10210000EBC1A4F2ABEC08F00201A36BECC1A4F2AA
:10211000ABEC08F0010E0201A36FEDC1A4F2ABEC31
:1021200008F0150E0201A36FA46BABEC08F0120EC1
:102130000201D56FC8EC00F000C011F20201766B0D
:102140006F0E776F020E786F700E796F020E7A6FD6
:1021500060DD0201766BFE0E6F15776F6A5303E048
:10216000010E6E6F01D06E6B6E51771370C278F2F4
:102170002EDF100E766F010E776F786B28DF1F0E43
:10218000D56F040ED66FABEC00F0A1EC08F02E0E6C
:10219000B16F020EB26FB36B2D0EB46F000EB56F40
:1021A000BCEC07F01F0ED56F010ED66F75EC00F07A
:1021B0001F0E0201D56F020ED66F75EC00F01200F3
:1021C0000201736B0C810C931F0ED56F010ED66F3D
:1021D00075EC00F01F0E0201D56F020ED66F75EC84
:1021E00000F00201D86B28C0D9F229C0DAF22CEC39
:1021F00000F0829208C2E1FF09C2E2FF3A0EE66EE9
:1022000006C200F007C201F020EC00F008C2E1FFB6
:1022100009C2E2FFE66A06C200F007C201F020EC44
:1022200000F000C028F008C2E1FF09C2E2FFE66A40
:1022300006C200F007C201F020EC00F000C029F057
:1022400008C2E1FF09C2E2FFE66A06C200F007C267
:1022500001F020EC00F000C00AF208C2E1FF09C260
:10226000E2FFE66A06C200F007C201F020EC00F0CF
:1022700000C00BF208C2E1FF09C2E2FFE66A06C233
:1022800000F007C201F020EC00F000C071F208C2BB
:10229000E1FF09C2E2FFE66A06C200F007C201F0F0
:1022A00020EC00F000C072F28282040E02010A5F8C
:1022B000000E0B5B2950190802E12850AD080DE310
:1022C00028B00BD072BF09D00B51050802E10A51AA
:1022D000EE0803E371AF01D003D0010E006EC5D14B
:1022E000D56BC8EC00F000C06FF2010E0201D56F93
:1022F000C8EC00F000C070F26FC2C7F270C2C8F242
:1023000002010A516F25C96F0B517021CA6FAF0EC0
:10231000CB6F190ECC6F010ECD6FFFEC00F0BB0E32
:10232000D56F190ED66FE0EC00F000C072F2D5EC5C
:1023300004F000C071F202017251080A02E1060EB7
:10234000711911E1BD0EA36F190EA46F2F0EA56FA9
:10235000000EA66F070EA76F58EC08F00050000A99
:1023600001E139DD58D102017251080A02E1000E83
:102370007119D8A44DD1CD0EA36F190EA46F200EE4
:10238000A56F020EA66F040EA76F58EC08F000525E
:1023900002E102010C830201CD0EA36F190EA46F9E
:1023A000220EA56F000EA66F040EA76F58EC08F062
:1023B000005202E102010C830201CD0EA36F190E3F
:1023C000A46F0D0EA56F020EA66F040EA76F58EC3A
:1023D00008F0005206E002010CB303D0020E736F46
:1023E00016D10201BD0ED56F190ED66FE0EC00F0CC
:1023F000F00E0014016E0150400A04E0030E0201C9
:10240000736F05D10201BD0ED56F190ED66FE0ECCA
:1024100000F000C06DF2000E02016E6F0F0E6D171E
:10242000000E6E176D376D916E376D376D916E378B
:10243000C30ED56F190ED66FE0EC00F0BF0E00147E
:10244000016E0150000AD8A4E2D0C40E0201D56F7B
:10245000190ED66FE0EC00F00050000AD8A4D7D0D7
:10246000BD0E02016D256B6F190E6E216C6FC60ECD
:10247000D56F190ED66FE0EC00F000C06AF2005084
:10248000010AD8A488D06BC2D5F26CC2D6F2E0ECB7
:1024900000F00050080AD8A47DD0010E02016B257F
:1024A000D56F000E6C21D66FE0EC00F00050000AF2
:1024B00071E16BC2D5F26CC2D6F20201D76B54EC5B
:1024C00000F011EC08F06CEC09F0C70EC76F190EA4
:1024D000C86FC96BCA6BDFEC01F0BD0E0201C76F9C
:1024E000190EC86F6DC2C9F26EC2CAF2B7EC01F024
:1024F000160E0201D56FC8EC00F000C074F2170E82
:102500000201D56FC8EC00F000C0C9F2C70E02018D
:10251000C76F190EC86F74C2CAF2DFEC01F0020E69
:1025200002016B25C76F000E6C21C86FC96BCA6BA7
:10253000DFEC01F06BC2C7F26CC2C8F202016D5150
:102540000A5DC96F6E510B59CA6F0E0EC95F000E3E
:10255000CA5BB7EC01F0160E0201D56FC8EC00F0B3
:1025600000C074F2170E0201D56FC8EC00F000C075
:10257000C9F2020E02016B25C76F000E6C21C86FF5
:1025800074C2CAF2DFEC01F00AC2C7F20BC2C8F291
:1025900063EC02F03CD002016A51110A0DE16FC2F6
:1025A00076F270C277F26DC278F26BC279F26CC2C9
:1025B0007AF244EC0EF02BD002016A51060A27E1B0
:1025C000100E6F25D56F000E7021D66FE0EC00F075
:1025D00000C075F20201746BD5EC04F000500201EA
:1025E00074250A6F000E75210B6F0E0E0A27000E60
:1025F0000B236FC276F270C277F26DC278F26EC2B0
:1026000079F26BC27AF26CC27BF2E3EC0AF003D08F
:102610000201040E736F02011E0ED56F400ED66FBD
:10262000ABEC00F0010E285C016E000E2958026E22
:102630000250190802E10150AD080AE20C0E020135
:10264000D86FAD0ED96F190EDA6F2CEC00F00BD0ED
:102650000C0E0201D86F010E285CD96F000E2958AC
:10266000DA6F2CEC00F073C200F01200C69A1C0E58
:102670000201066F000E076FDB0E086F020E096F76
:10268000FF0E1C6FFF0E1D6FFF0E1E6FFF0E1F6FE4
:10269000949A94969488C66A400EC76EC68A1200B1
:1026A0000900F5CFE6FF0006FBE10106F9E11200A3
:1026B0000201656B1F0ED56F010ED66FABEC00F0FB
:1026C0001F0E0201D56F020ED66F75EC00F0190EC9
:1026D0000201D56FC8EC00F00050000803E270DD85
:1026E00000C065F21F0E0201D56F010ED66F75ECAA
:1026F00000F01F0E0201D56F020ED66F75EC00F0D0
:1027000065C200F012009490828094928282A1ECC3
:1027100008F08280A1EC08F08290A1EC08F08280A1
:10272000A1EC08F0829208C2E1FF09C2E2FFFF0EAD
:10273000E66E06C200F007C201F020EC00F08282D3
:10274000A1EC08F0E80EC76F010EC86F65C2C9F2B0
:1027500066C2CAF2060ECB6F000ECC6F3BEC02F0E5
:102760000D0EC76F020EC86F67C2C9F268C2CAF207
:10277000040ECB6F000ECC6F3BEC02F01F0ED56F3A
:10278000010ED66F75EC00F01F0E0201D56F020E20
:10279000D66F75EC00F0080E0201D86FD96BDA6BBA
:1027A0002CEC00F00A0E0201D86FAD0ED96F190E95
:1027B000DA6F2CEC00F00C0E0201D86FAD0ED96F61
:1027C000190EDA6F2CEC00F00201D86BD96BDA6BC2
:1027D0002CEC00F0040E0201D86FAE0ED96F190E6A
:1027E000DA6F2CEC00F01F0E0201D56F010ED66FD0
:1027F00075EC00F01F0E0201D56F020ED66FABEC28
:1028000000F069C26AF20BDC120023EC15F00F0134
:102810003A6B3B6B956A836A29DF150E656F000E74
:10282000666F1B0E676F000E686F010E696F6BDFBE
:102830003FDFFED7FFD70014A576193FC0A8010FD0
:10284000000000FFFFFFFFFFFF000000000000008E
:102850000001080006040000005442003C68746D4A
:102860006C3E3C626F64793E3C666F726D206E61B7
:102870006D653D22696E70757422206D6574686F98
:10288000643D22676574223E3C7461626C65206120
:102890006C69676E3D63656E7465722077696474F8
:1028A000683D353030206267636F6C6F723D5265F2
:1028B0006420626F726465723D343E3C74723E3CCB
:1028C000746420616C69676E3D63656E7465722027
:1028D000636F6C7370616E3D323E3C666F6E742048
:1028E00073697A653D3720636F6C6F723D776869F5
:1028F000746520666163653D2276657264616E6110
:10290000223E3C623E4C454420434F4E54524F4C75
:102910003C2F623E3C2F666F6E743E3C2F74643ECB
:102920003C2F74723E3C74723E3C746420616C694E
:10293000676E3D63656E746572206267636F6C6F6E
:10294000723D426C75653E3C696E707574206E61B7
:102950006D653D2254412220747970653D22737566
:10296000626D6974222076616C75653D22544F4713
:10297000474C45204C45442041223E3C2F74643E48
:102980003C746420616C69676E3D63656E7465724A
:10299000206267636F6C6F723D477265656E3E20A3
:1029A0003C696E707574206E616D653D22544222E3
:1029B00020747970653D227375626D69742220768A
:1029C000616C75653D22544F47474C45204C45444A
:1029D0002042223E3C2F74643E3C2F74723E3C2FBA
:1029E0007461626C653E3C2F666F726D3E3C2F6277
:1029F0006F64793E3C2F68746D6C3E005441004713
:102A00004554202F00485454502F312E312032305D
:102A100030204F4B0A436F6E74656E742D7479705D
:102A2000653A00010106001223344500008000745D
:102A30006578742F68746D6C0A0A0063825363357D
:102A400001370301030610EE15F0CF0E006E020EE3
:102A5000016E360EF66E280EF76E000EF86E50EC14
:102A600013F01200FFFFFFFFFFFFFFFFFFFFFFFF5D
:020000040030CA
:0D000100231F3CFFBF81FF0FC00FE00F4029
:00000001FF
